{
  "contractName": "CustomerPoints",
  "abi": [
    {
      "constant": true,
      "inputs": [],
      "name": "totalPoints",
      "outputs": [
        {
          "name": "",
          "type": "uint256"
        }
      ],
      "payable": false,
      "stateMutability": "view",
      "type": "function",
      "signature": "0x567142be"
    },
    {
      "constant": true,
      "inputs": [],
      "name": "numCustomers",
      "outputs": [
        {
          "name": "",
          "type": "uint256"
        }
      ],
      "payable": false,
      "stateMutability": "view",
      "type": "function",
      "signature": "0x88ca16b2"
    },
    {
      "constant": true,
      "inputs": [
        {
          "name": "",
          "type": "uint256"
        }
      ],
      "name": "customers",
      "outputs": [
        {
          "name": "customerId",
          "type": "uint256"
        },
        {
          "name": "name",
          "type": "string"
        },
        {
          "name": "country",
          "type": "string"
        },
        {
          "name": "points",
          "type": "uint256"
        }
      ],
      "payable": false,
      "stateMutability": "view",
      "type": "function",
      "signature": "0xc0abda2a"
    },
    {
      "inputs": [],
      "payable": false,
      "stateMutability": "nonpayable",
      "type": "constructor",
      "signature": "constructor"
    },
    {
      "constant": false,
      "inputs": [
        {
          "name": "_name",
          "type": "string"
        },
        {
          "name": "_amount",
          "type": "uint256"
        },
        {
          "name": "_country",
          "type": "string"
        }
      ],
      "name": "assignPoints",
      "outputs": [],
      "payable": false,
      "stateMutability": "nonpayable",
      "type": "function",
      "signature": "0x95dd02db"
    },
    {
      "constant": true,
      "inputs": [
        {
          "name": "_index",
          "type": "uint256"
        }
      ],
      "name": "getCustomer",
      "outputs": [
        {
          "name": "",
          "type": "string"
        },
        {
          "name": "",
          "type": "uint256"
        },
        {
          "name": "",
          "type": "string"
        }
      ],
      "payable": false,
      "stateMutability": "view",
      "type": "function",
      "signature": "0xeb876f27"
    },
    {
      "constant": false,
      "inputs": [
        {
          "name": "_index",
          "type": "uint256"
        },
        {
          "name": "_newCountry",
          "type": "string"
        }
      ],
      "name": "setCustomerCountry",
      "outputs": [],
      "payable": false,
      "stateMutability": "nonpayable",
      "type": "function",
      "signature": "0xa14fdf07"
    },
    {
      "constant": true,
      "inputs": [],
      "name": "remainingPoints",
      "outputs": [
        {
          "name": "",
          "type": "uint256"
        }
      ],
      "payable": false,
      "stateMutability": "view",
      "type": "function",
      "signature": "0x3b224ca4"
    }
  ],
  "bytecode": "0x608060405260008055620f42406001553480156200001c57600080fd5b50620000a56040805190810160405280600981526020017f456c6f6e204d75736b00000000000000000000000000000000000000000000008152506103e86040805190810160405280600881526020017f4261726261646f73000000000000000000000000000000000000000000000000815250620000ab640100000000026401000000009004565b620003af565b6060839050600581511115156200012a576040517f08c379a00000000000000000000000000000000000000000000000000000000081526004018080602001828103825260118152602001807f4e616d6520697320746f6f2073686f727400000000000000000000000000000081525060200191505060405180910390fd5b82600154111515620001ca576040517f08c379a00000000000000000000000000000000000000000000000000000000081526004018080602001828103825260248152602001807f496e73756666696369656e742066756e647320746f20616c6c6f77207472616e81526020017f736665720000000000000000000000000000000000000000000000000000000081525060400191505060405180910390fd5b82600154101562000243576040517f08c379a000000000000000000000000000000000000000000000000000000000815260040180806020018281038252601c8152602001807f4e6f7420656e6f75676820706f696e747320617661696c61626c652e0000000081525060200191505060405180910390fd5b826001541115156200025157fe5b826001540360018190555060008081548092919060010191905055506080604051908101604052806000548152602001858152602001838152602001848152506002600080548152602001908152602001600020600082015181600001556020820151816001019080519060200190620002cd92919062000300565b506040820151816002019080519060200190620002ec92919062000300565b506060820151816003015590505050505050565b828054600181600116156101000203166002900490600052602060002090601f016020900481019282601f106200034357805160ff191683800117855562000374565b8280016001018555821562000374579182015b828111156200037357825182559160200191906001019062000356565b5b50905062000383919062000387565b5090565b620003ac91905b80821115620003a85760008160009055506001016200038e565b5090565b90565b610c6a80620003bf6000396000f3fe608060405260043610610083576000357c0100000000000000000000000000000000000000000000000000000000900463ffffffff1680633b224ca414610088578063567142be146100b357806388ca16b2146100de57806395dd02db14610109578063a14fdf0714610272578063c0abda2a14610344578063eb876f2714610472575b600080fd5b34801561009457600080fd5b5061009d610599565b6040518082815260200191505060405180910390f35b3480156100bf57600080fd5b506100c86105a3565b6040518082815260200191505060405180910390f35b3480156100ea57600080fd5b506100f36105a9565b6040518082815260200191505060405180910390f35b34801561011557600080fd5b506102706004803603606081101561012c57600080fd5b810190808035906020019064010000000081111561014957600080fd5b82018360208201111561015b57600080fd5b8035906020019184600183028401116401000000008311171561017d57600080fd5b91908080601f016020809104026020016040519081016040528093929190818152602001838380828437600081840152601f19601f82011690508083019250505050505050919291929080359060200190929190803590602001906401000000008111156101ea57600080fd5b8201836020820111156101fc57600080fd5b8035906020019184600183028401116401000000008311171561021e57600080fd5b91908080601f016020809104026020016040519081016040528093929190818152602001838380828437600081840152601f19601f8201169050808301925050505050505091929192905050506105af565b005b34801561027e57600080fd5b506103426004803603604081101561029557600080fd5b8101908080359060200190929190803590602001906401000000008111156102bc57600080fd5b8201836020820111156102ce57600080fd5b803590602001918460018302840111640100000000831117156102f057600080fd5b91908080601f016020809104026020016040519081016040528093929190818152602001838380828437600081840152601f19601f8201169050808301925050505050505091929192905050506107fc565b005b34801561035057600080fd5b5061037d6004803603602081101561036757600080fd5b810190808035906020019092919050505061082b565b604051808581526020018060200180602001848152602001838103835286818151815260200191508051906020019080838360005b838110156103cd5780820151818401526020810190506103b2565b50505050905090810190601f1680156103fa5780820380516001836020036101000a031916815260200191505b50838103825285818151815260200191508051906020019080838360005b83811015610433578082015181840152602081019050610418565b50505050905090810190601f1680156104605780820380516001836020036101000a031916815260200191505b50965050505050505060405180910390f35b34801561047e57600080fd5b506104ab6004803603602081101561049557600080fd5b810190808035906020019092919050505061098b565b604051808060200184815260200180602001838103835286818151815260200191508051906020019080838360005b838110156104f55780820151818401526020810190506104da565b50505050905090810190601f1680156105225780820380516001836020036101000a031916815260200191505b50838103825284818151815260200191508051906020019080838360005b8381101561055b578082015181840152602081019050610540565b50505050905090810190601f1680156105885780820380516001836020036101000a031916815260200191505b509550505050505060405180910390f35b6000600154905090565b60015481565b60005481565b60608390506005815111151561062d576040517f08c379a00000000000000000000000000000000000000000000000000000000081526004018080602001828103825260118152602001807f4e616d6520697320746f6f2073686f727400000000000000000000000000000081525060200191505060405180910390fd5b826001541115156106cc576040517f08c379a00000000000000000000000000000000000000000000000000000000081526004018080602001828103825260248152602001807f496e73756666696369656e742066756e647320746f20616c6c6f77207472616e81526020017f736665720000000000000000000000000000000000000000000000000000000081525060400191505060405180910390fd5b826001541015610744576040517f08c379a000000000000000000000000000000000000000000000000000000000815260040180806020018281038252601c8152602001807f4e6f7420656e6f75676820706f696e747320617661696c61626c652e0000000081525060200191505060405180910390fd5b8260015411151561075157fe5b8260015403600181905550600080815480929190600101919050555060806040519081016040528060005481526020018581526020018381526020018481525060026000805481526020019081526020016000206000820151816000015560208201518160010190805190602001906107cb929190610b19565b5060408201518160020190805190602001906107e8929190610b19565b506060820151816003015590505050505050565b80600260008481526020019081526020016000206002019080519060200190610826929190610b99565b505050565b6002602052806000526040600020600091509050806000015490806001018054600181600116156101000203166002900480601f0160208091040260200160405190810160405280929190818152602001828054600181600116156101000203166002900480156108dd5780601f106108b2576101008083540402835291602001916108dd565b820191906000526020600020905b8154815290600101906020018083116108c057829003601f168201915b505050505090806002018054600181600116156101000203166002900480601f01602080910402602001604051908101604052809291908181526020018280546001816001161561010002031660029004801561097b5780601f106109505761010080835404028352916020019161097b565b820191906000526020600020905b81548152906001019060200180831161095e57829003601f168201915b5050505050908060030154905084565b60606000606060026000858152602001908152602001600020600101600260008681526020019081526020016000206003015460026000878152602001908152602001600020600201828054600181600116156101000203166002900480601f016020809104026020016040519081016040528092919081815260200182805460018160011615610100020316600290048015610a695780601f10610a3e57610100808354040283529160200191610a69565b820191906000526020600020905b815481529060010190602001808311610a4c57829003601f168201915b50505050509250808054600181600116156101000203166002900480601f016020809104026020016040519081016040528092919081815260200182805460018160011615610100020316600290048015610b055780601f10610ada57610100808354040283529160200191610b05565b820191906000526020600020905b815481529060010190602001808311610ae857829003601f168201915b505050505090509250925092509193909250565b828054600181600116156101000203166002900490600052602060002090601f016020900481019282601f10610b5a57805160ff1916838001178555610b88565b82800160010185558215610b88579182015b82811115610b87578251825591602001919060010190610b6c565b5b509050610b959190610c19565b5090565b828054600181600116156101000203166002900490600052602060002090601f016020900481019282601f10610bda57805160ff1916838001178555610c08565b82800160010185558215610c08579182015b82811115610c07578251825591602001919060010190610bec565b5b509050610c159190610c19565b5090565b610c3b91905b80821115610c37576000816000905550600101610c1f565b5090565b9056fea165627a7a72305820beac5c0bc72427bccc722733042d6261a018f88bdd74d9939e39c6980e6747450029",
  "source": "pragma solidity^0.5.0;\n\ncontract CustomerPoints {\n\n    uint public numCustomers = 0;   \n    uint public totalPoints = 1000000;\n  \n  struct Customer {\n    uint customerId;\n    string name;\n    string country;\n    uint points;\n  }\n  \n  mapping(uint => Customer) public customers;\n  \n  constructor() public {\n    assignPoints('Elon Musk',1000,'Barbados');\n  }\n\n  function assignPoints(string memory _name, uint _amount, string memory _country) public {\n      \n    bytes memory _nameBytes = bytes(_name);\n    require(_nameBytes.length > 5,\"Name is too short\");\n    require(totalPoints > _amount,\"Insufficient funds to allow transfer\");\n    if(totalPoints < _amount)\n        revert(\"Not enough points available.\");\n    assert(totalPoints > _amount);\n    totalPoints = totalPoints-_amount;\n    numCustomers++;\n    customers[numCustomers] = Customer(numCustomers, _name, _country, _amount);\n    \n  }\n  \n  function getCustomer(uint _index) view public returns(string memory, uint, string memory){\n  \treturn (customers[_index].name, customers[_index].points, customers[_index].country);\n  }\n  \n  function setCustomerCountry(uint _index, string memory _newCountry) public{\n    customers[_index].country = _newCountry;\n  }\n    \n    function remainingPoints() view public returns (uint) {\n        return totalPoints;\n    }\n\n}",
  "sourcePath": "/Users/shannonclarke/Documents/dev/workshops/week5/contracts/CustomerPoints.sol",
  "compiler": {
    "name": "solc",
    "version": "0.5.0+commit.1d4f565a.Emscripten.clang"
  },
  "schemaVersion": "3.0.8",
  "updatedAt": "2019-07-20T19:47:30.835Z",
  "devdoc": {
    "methods": {}
  },
  "userdoc": {
    "methods": {}
  }
}